{
  "_format": "hh-sol-artifact-1",
  "contractName": "ExampleSwapToPrice",
  "sourceName": "contracts/examples/ExampleSwapToPrice.sol",
  "abi": [
    {
      "inputs": [
        {
          "internalType": "address",
          "name": "factory_",
          "type": "address"
        },
        {
          "internalType": "contract ISaitaSwapRouter01",
          "name": "router_",
          "type": "address"
        }
      ],
      "stateMutability": "nonpayable",
      "type": "constructor"
    },
    {
      "inputs": [
        {
          "internalType": "uint256",
          "name": "truePriceTokenA",
          "type": "uint256"
        },
        {
          "internalType": "uint256",
          "name": "truePriceTokenB",
          "type": "uint256"
        },
        {
          "internalType": "uint256",
          "name": "reserveA",
          "type": "uint256"
        },
        {
          "internalType": "uint256",
          "name": "reserveB",
          "type": "uint256"
        }
      ],
      "name": "computeProfitMaximizingTrade",
      "outputs": [
        {
          "internalType": "bool",
          "name": "aToB",
          "type": "bool"
        },
        {
          "internalType": "uint256",
          "name": "amountIn",
          "type": "uint256"
        }
      ],
      "stateMutability": "pure",
      "type": "function"
    },
    {
      "inputs": [],
      "name": "factory",
      "outputs": [
        {
          "internalType": "address",
          "name": "",
          "type": "address"
        }
      ],
      "stateMutability": "view",
      "type": "function"
    },
    {
      "inputs": [],
      "name": "router",
      "outputs": [
        {
          "internalType": "contract ISaitaSwapRouter01",
          "name": "",
          "type": "address"
        }
      ],
      "stateMutability": "view",
      "type": "function"
    },
    {
      "inputs": [
        {
          "internalType": "address",
          "name": "tokenA",
          "type": "address"
        },
        {
          "internalType": "address",
          "name": "tokenB",
          "type": "address"
        },
        {
          "internalType": "uint256",
          "name": "truePriceTokenA",
          "type": "uint256"
        },
        {
          "internalType": "uint256",
          "name": "truePriceTokenB",
          "type": "uint256"
        },
        {
          "internalType": "uint256",
          "name": "maxSpendTokenA",
          "type": "uint256"
        },
        {
          "internalType": "uint256",
          "name": "maxSpendTokenB",
          "type": "uint256"
        },
        {
          "internalType": "address",
          "name": "to",
          "type": "address"
        },
        {
          "internalType": "uint256",
          "name": "deadline",
          "type": "uint256"
        }
      ],
      "name": "swapToPrice",
      "outputs": [],
      "stateMutability": "nonpayable",
      "type": "function"
    }
  ],
  "bytecode": "0x60c060405234801561001057600080fd5b50604051610e57380380610e578339818101604052604081101561003357600080fd5b5080516020909101516001600160601b0319606092831b811660a052911b1660805260805160601c60a05160601c610dca61008d600039806101e652806104ca525080610276528061031952806104ee5250610dca6000f3fe608060405234801561001057600080fd5b506004361061004c5760003560e01c8063bef90fd314610051578063c45a0155146100a8578063f887ea40146100cc578063fa653154146100d4575b600080fd5b6100a6600480360361010081101561006857600080fd5b506001600160a01b038135811691602081013582169160408201359160608101359160808201359160a08101359160c0820135169060e0013561011e565b005b6100b06104c8565b604080516001600160a01b039092168252519081900360200190f35b6100b06104ec565b610103600480360360808110156100ea57600080fd5b5080359060208101359060408101359060600135610510565b60408051921515835260208301919091528051918290030190f35b851580159061012c57508415155b61017d576040805162461bcd60e51b815260206004820152601e60248201527f4578616d706c6553776170546f50726963653a205a45524f5f50524943450000604482015290519081900360640190fd5b8315158061018a57508215155b6101db576040805162461bcd60e51b815260206004820152601e60248201527f4578616d706c6553776170546f50726963653a205a45524f5f5350454e440000604482015290519081900360640190fd5b60008060008061020c7f00000000000000000000000000000000000000000000000000000000000000008d8d6105f5565b9150915061021c8a8a8484610510565b9094509250600091508390506102325785610234565b865b905080821115610242578091505b60008361024f578a610251565b8b5b9050600084610260578c610262565b8b5b9050610270823330876106c3565b61029b827f000000000000000000000000000000000000000000000000000000000000000086610820565b604080516002808252606080830184529260208301908036833701905050905082816000815181106102c957fe5b60200260200101906001600160a01b031690816001600160a01b03168152505081816001815181106102f757fe5b60200260200101906001600160a01b031690816001600160a01b0316815250507f00000000000000000000000000000000000000000000000000000000000000006001600160a01b03166338ed1739866000848c8c6040518663ffffffff1660e01b81526004018086815260200185815260200180602001846001600160a01b03166001600160a01b03168152602001838152602001828103825285818151815260200191508051906020019060200280838360005b838110156103c55781810151838201526020016103ad565b505050509050019650505050505050600060405180830381600087803b1580156103ee57600080fd5b505af1158015610402573d6000803e3d6000fd5b505050506040513d6000823e601f3d908101601f19168201604052602081101561042b57600080fd5b810190808051604051939291908464010000000082111561044b57600080fd5b90830190602082018581111561046057600080fd5b825186602082028301116401000000008211171561047d57600080fd5b82525081516020918201928201910280838360005b838110156104aa578181015183820152602001610492565b50505050905001604052505050505050505050505050505050505050565b7f000000000000000000000000000000000000000000000000000000000000000081565b7f000000000000000000000000000000000000000000000000000000000000000081565b6000808583610525868863ffffffff61097416565b8161052c57fe5b041091506000610542858563ffffffff61097416565b905060006105986105686103e58661055a578a61055c565b895b9063ffffffff61097416565b61058b6103e861055c8861057c578b61057e565b8c5b879063ffffffff61097416565b8161059257fe5b046109dd565b905060006103e5856105bb576105b6876103e863ffffffff61097416565b6105cd565b6105cd886103e863ffffffff61097416565b816105d457fe5b0490506105e7828263ffffffff610b2516565b935050505094509492505050565b60008060006106048585610b75565b509050600080610615888888610c53565b6001600160a01b0316630902f1ac6040518163ffffffff1660e01b815260040160606040518083038186803b15801561064d57600080fd5b505afa158015610661573d6000803e3d6000fd5b505050506040513d606081101561067757600080fd5b5080516020909101516dffffffffffffffffffffffffffff91821693501690506001600160a01b03878116908416146106b15780826106b4565b81815b90999098509650505050505050565b604080516001600160a01b0385811660248301528481166044830152606480830185905283518084039091018152608490920183526020820180516001600160e01b03166323b872dd60e01b17815292518251600094606094938a169392918291908083835b602083106107485780518252601f199092019160209182019101610729565b6001836020036101000a0380198251168184511680821785525050505050509050019150506000604051808303816000865af19150503d80600081146107aa576040519150601f19603f3d011682016040523d82523d6000602084013e6107af565b606091505b50915091508180156107dd5750805115806107dd57508080602001905160208110156107da57600080fd5b50515b6108185760405162461bcd60e51b8152600401808060200182810382526031815260200180610d146031913960400191505060405180910390fd5b505050505050565b604080516001600160a01b038481166024830152604480830185905283518084039091018152606490920183526020820180516001600160e01b031663095ea7b360e01b178152925182516000946060949389169392918291908083835b6020831061089d5780518252601f19909201916020918201910161087e565b6001836020036101000a0380198251168184511680821785525050505050509050019150506000604051808303816000865af19150503d80600081146108ff576040519150601f19603f3d011682016040523d82523d6000602084013e610904565b606091505b5091509150818015610932575080511580610932575080806020019051602081101561092f57600080fd5b50515b61096d5760405162461bcd60e51b815260040180806020018281038252602b815260200180610d45602b913960400191505060405180910390fd5b5050505050565b600081158061098f5750508082028282828161098c57fe5b04145b6109d7576040805162461bcd60e51b815260206004820152601460248201527364732d6d6174682d6d756c2d6f766572666c6f7760601b604482015290519081900360640190fd5b92915050565b6000816109ec57506000610b20565b816001600160801b8210610a055760809190911c9060401b5b680100000000000000008210610a205760409190911c9060201b5b6401000000008210610a375760209190911c9060101b5b620100008210610a4c5760109190911c9060081b5b6101008210610a605760089190911c9060041b5b60108210610a735760049190911c9060021b5b60088210610a7f5760011b5b6001818581610a8a57fe5b048201901c90506001818581610a9c57fe5b048201901c90506001818581610aae57fe5b048201901c90506001818581610ac057fe5b048201901c90506001818581610ad257fe5b048201901c90506001818581610ae457fe5b048201901c90506001818581610af657fe5b048201901c90506000818581610b0857fe5b049050808210610b185780610b1a565b815b93505050505b919050565b808203828111156109d7576040805162461bcd60e51b815260206004820152601560248201527464732d6d6174682d7375622d756e646572666c6f7760581b604482015290519081900360640190fd5b600080826001600160a01b0316846001600160a01b03161415610bc95760405162461bcd60e51b8152600401808060200182810382526025815260200180610d706025913960400191505060405180910390fd5b826001600160a01b0316846001600160a01b031610610be9578284610bec565b83835b90925090506001600160a01b038216610c4c576040805162461bcd60e51b815260206004820152601e60248201527f5361697461537761704c6962726172793a205a45524f5f414444524553530000604482015290519081900360640190fd5b9250929050565b6000806000610c628585610b75565b604080516bffffffffffffffffffffffff19606094851b811660208084019190915293851b81166034830152825160288184030181526048830184528051908501206001600160f81b031960688401529a90941b9093166069840152607d8301989098527f49d9acd3e20042617be7e378294c731749bc579b09dfd560cd3357445ce0b9e9609d808401919091528851808403909101815260bd90920190975280519601959095209594505050505056fe5472616e7366657248656c7065723a3a7472616e7366657246726f6d3a207472616e7366657246726f6d206661696c65645472616e7366657248656c7065723a3a73616665417070726f76653a20617070726f7665206661696c65645361697461537761704c6962726172793a204944454e544943414c5f414444524553534553a2646970667358221220215125e7a00ee81fa2d85bc9684ac26c95bebc099402ff8d3bbdc1429b8ee0bf64736f6c63430006060033",
  "linkReferences": {},
  "deployedLinkReferences": {}
}